{
  "transactions": [
    {
      "hash": "0x1331ba861084c28c43570b7f54ba8b2741e7c67155b69f1190db6ef27095dd67",
      "transactionType": "CALL",
      "contractName": null,
      "contractAddress": "0xb463c1f28249c72d14e17df68b2a7299c6292366",
      "function": "deployModel(uint256)",
      "arguments": [
        "1000000000000000000"
      ],
      "transaction": {
        "from": "0x98e267fd342a5966d390b22e2aba29ef41650eea",
        "to": "0xb463c1f28249c72d14e17df68b2a7299c6292366",
        "gas": "0x41f4e",
        "value": "0x0",
        "input": "0x4424966f0000000000000000000000000000000000000000000000000de0b6b3a7640000",
        "nonce": "0xf",
        "chainId": "0x1"
      },
      "additionalContracts": [
        {
          "transactionType": "CREATE2",
          "address": "0x81a14568ed14b79444900db76aa75cb131cbbf9e",
          "initCode": "0x60a060405234801561001057600080fd5b506040516102bc3803806102bc83398101604081905261002f91610037565b608052610050565b60006020828403121561004957600080fd5b5051919050565b60805161024c610070600039600081816065015260ad015261024c6000f3fe608060405234801561001057600080fd5b50600436106100365760003560e01c8063569621b81461003b5780638eff1a9814610060575b600080fd5b61004e6100493660046101d3565b610087565b60405190815260200160405180910390f35b61004e7f000000000000000000000000000000000000000000000000000000000000000081565b60008061009484426101f5565b9050806000036100a85760009150506100d6565b6100d27f0000000000000000000000000000000000000000000000000000000000000000826100dc565b9150505b92915050565b60006100fc82670de0b6b3a76400006100f586826101f5565b9190610115565b61010e90670de0b6b3a76400006101f5565b9392505050565b60008380156101b55760018416801561013057859250610134565b8392505b508260011c8460011c94505b84156101af578560801c1561015457600080fd5b8586028181018181101561016757600080fd5b85900496505060018516156101a457858302838782041461018d57861561018d57600080fd5b8181018181101561019d57600080fd5b8590049350505b8460011c9450610140565b506101cb565b8380156101c557600092506101c9565b8392505b505b509392505050565b600080604083850312156101e657600080fd5b50508035926020909101359150565b818103818111156100d657634e487b7160e01b600052601160045260246000fdfea26469706673582212205454b64177de9f42411ca8ba81a925e82b3ff8f61782692493777d4845115cbd64736f6c634300081600330000000000000000000000000000000000000000000000000de0b6b3a7640000"
        }
      ],
      "isFixedGasLimit": false
    }
  ],
  "receipts": [
    {
      "status": "0x1",
      "cumulativeGasUsed": "0xe6c445",
      "logs": [
        {
          "address": "0xb463c1f28249c72d14e17df68b2a7299c6292366",
          "topics": [
            "0xe9c083e46509677006e91e85e2d4f8ca83c1309cb2798019e795f206a0c25a33",
            "0x00000000000000000000000081a14568ed14b79444900db76aa75cb131cbbf9e"
          ],
          "data": "0x0000000000000000000000000000000000000000000000000de0b6b3a7640000",
          "blockHash": "0x76d73b8bc973bbbf9093d9c9a05386dfaf30e23f8cedc252fd6c4afc274ff6cb",
          "blockNumber": "0x13049bc",
          "transactionHash": "0x1331ba861084c28c43570b7f54ba8b2741e7c67155b69f1190db6ef27095dd67",
          "transactionIndex": "0x75",
          "logIndex": "0x155",
          "removed": false
        }
      ],
      "logsBloom": "0x00000001000000000000000000000000000000000000000000000000000000000000000000000000000000000000000000000000800000000000000000000000000000000000000001000000000000000000000000000000000000080010000000000000000000000000001000000000000000000000000000000000000000000000000000000000000000000000000000000000000000000000000000000000000000000000000000000000000000000000000000000000000000000000000000000000000000000000000000000000000000000000040000000000000000000000000000000000100000000000020000000000000000000000000000000000",
      "type": "0x2",
      "transactionHash": "0x1331ba861084c28c43570b7f54ba8b2741e7c67155b69f1190db6ef27095dd67",
      "transactionIndex": "0x75",
      "blockHash": "0x76d73b8bc973bbbf9093d9c9a05386dfaf30e23f8cedc252fd6c4afc274ff6cb",
      "blockNumber": "0x13049bc",
      "gasUsed": "0x2fc34",
      "effectiveGasPrice": "0x18e9432d2",
      "from": "0x98e267fd342a5966d390b22e2aba29ef41650eea",
      "to": "0xb463c1f28249c72d14e17df68b2a7299c6292366",
      "contractAddress": null
    }
  ],
  "libraries": [],
  "pending": [],
  "returns": {},
  "timestamp": 1716578834,
  "chain": 1,
  "commit": "158e0e8"
}