{
  "transactions": [
    {
      "hash": "0x0c89050e3427ea0ecb861770bda248097cf70a412491f12ebf53517c63937b9a",
      "transactionType": "CALL",
      "contractName": null,
      "contractAddress": "0xf491ee3649ed8977cfcf80564edf3c5163ea120c",
      "function": "deployModel(uint256)",
      "arguments": [
        "0"
      ],
      "transaction": {
        "from": "0x02d1cd7971eb06b4773f271a5ad65a00de0ed2b4",
        "to": "0xf491ee3649ed8977cfcf80564edf3c5163ea120c",
        "gas": "0x41eea",
        "value": "0x0",
        "input": "0x4424966f0000000000000000000000000000000000000000000000000000000000000000",
        "nonce": "0xe",
        "chainId": "0xa"
      },
      "additionalContracts": [
        {
          "transactionType": "CREATE2",
          "address": "0xc8bceb0f6eaacd5b88f181e6cf74545375d119d6",
          "initCode": "0x60a060405234801561001057600080fd5b506040516102bc3803806102bc83398101604081905261002f91610037565b608052610050565b60006020828403121561004957600080fd5b5051919050565b60805161024c610070600039600081816065015260ad015261024c6000f3fe608060405234801561001057600080fd5b50600436106100365760003560e01c8063569621b81461003b5780638eff1a9814610060575b600080fd5b61004e6100493660046101d3565b610087565b60405190815260200160405180910390f35b61004e7f000000000000000000000000000000000000000000000000000000000000000081565b60008061009484426101f5565b9050806000036100a85760009150506100d6565b6100d27f0000000000000000000000000000000000000000000000000000000000000000826100dc565b9150505b92915050565b60006100fc82670de0b6b3a76400006100f586826101f5565b9190610115565b61010e90670de0b6b3a76400006101f5565b9392505050565b60008380156101b55760018416801561013057859250610134565b8392505b508260011c8460011c94505b84156101af578560801c1561015457600080fd5b8586028181018181101561016757600080fd5b85900496505060018516156101a457858302838782041461018d57861561018d57600080fd5b8181018181101561019d57600080fd5b8590049350505b8460011c9450610140565b506101cb565b8380156101c557600092506101c9565b8392505b505b509392505050565b600080604083850312156101e657600080fd5b50508035926020909101359150565b818103818111156100d657634e487b7160e01b600052601160045260246000fdfea26469706673582212205454b64177de9f42411ca8ba81a925e82b3ff8f61782692493777d4845115cbd64736f6c634300081600330000000000000000000000000000000000000000000000000000000000000000"
        }
      ],
      "isFixedGasLimit": false
    }
  ],
  "receipts": [
    {
      "status": "0x1",
      "cumulativeGasUsed": "0xe1c9f",
      "logs": [
        {
          "address": "0xf491ee3649ed8977cfcf80564edf3c5163ea120c",
          "topics": [
            "0xe9c083e46509677006e91e85e2d4f8ca83c1309cb2798019e795f206a0c25a33",
            "0x000000000000000000000000c8bceb0f6eaacd5b88f181e6cf74545375d119d6"
          ],
          "data": "0x0000000000000000000000000000000000000000000000000000000000000000",
          "blockHash": "0xa9600a02fc2928aa51f974cc98ac3307ada0aee32cb574644f43cec520070294",
          "blockNumber": "0x72e84d3",
          "transactionHash": "0x0c89050e3427ea0ecb861770bda248097cf70a412491f12ebf53517c63937b9a",
          "transactionIndex": "0x9",
          "logIndex": "0x8",
          "removed": false
        }
      ],
      "logsBloom": "0x00000000000000000000000000400000000000000000000000000000000000000000000000000000000000000000000000000000000000000000000000000000000000000000000001000400000000000000000000000000000000000000000000000000000000000000000000000000000000000000000000000000000000000000000000000000000000000000000000000000000000000000004000000000000000000000002000000000000000000000000000000000000000000000000000000000000000000000000000000000210000000000040000000000000000000000000000000000100000000000000000000000000000000000000000000000",
      "type": "0x2",
      "transactionHash": "0x0c89050e3427ea0ecb861770bda248097cf70a412491f12ebf53517c63937b9a",
      "transactionIndex": "0x9",
      "blockHash": "0xa9600a02fc2928aa51f974cc98ac3307ada0aee32cb574644f43cec520070294",
      "blockNumber": "0x72e84d3",
      "gasUsed": "0x2fbec",
      "effectiveGasPrice": "0x3b19b5a",
      "from": "0x02d1cd7971eb06b4773f271a5ad65a00de0ed2b4",
      "to": "0xf491ee3649ed8977cfcf80564edf3c5163ea120c",
      "contractAddress": null,
      "l1Fee": "0x6d6cac1e5",
      "l1GasPrice": "0x2992fbb03",
      "l1GasUsed": "0x784"
    }
  ],
  "libraries": [],
  "pending": [],
  "returns": {},
  "timestamp": 1716577125,
  "chain": 10,
  "commit": "158e0e8"
}