{
  "transactions": [
    {
      "hash": "0xb2789c4f584fe2b3e3eb2a77e75b13f4a69732ca3a0a24cf786a950848d64296",
      "transactionType": "CALL",
      "contractName": null,
      "contractAddress": "0x3A95eB89E7b6B86ae2a74480CbA6baa24888c788",
      "function": "deployModel(uint256)",
      "arguments": [
        "1000000000000000000"
      ],
      "transaction": {
        "type": "0x02",
        "from": "0x9af1af61f22b411851c6230860b37d97e7ffc02b",
        "to": "0x3a95eb89e7b6b86ae2a74480cba6baa24888c788",
        "gas": "0x41f4e",
        "value": "0x0",
        "data": "0x4424966f0000000000000000000000000000000000000000000000000de0b6b3a7640000",
        "nonce": "0x11",
        "accessList": []
      },
      "additionalContracts": [
        {
          "transactionType": "CREATE2",
          "address": "0x409F6f76998Ba5f0b2bC5973e6bEd2b74f166555",
          "initCode": "0x60a060405234801561001057600080fd5b506040516102bc3803806102bc83398101604081905261002f91610037565b608052610050565b60006020828403121561004957600080fd5b5051919050565b60805161024c610070600039600081816065015260ad015261024c6000f3fe608060405234801561001057600080fd5b50600436106100365760003560e01c8063569621b81461003b5780638eff1a9814610060575b600080fd5b61004e6100493660046101d3565b610087565b60405190815260200160405180910390f35b61004e7f000000000000000000000000000000000000000000000000000000000000000081565b60008061009484426101f5565b9050806000036100a85760009150506100d6565b6100d27f0000000000000000000000000000000000000000000000000000000000000000826100dc565b9150505b92915050565b60006100fc82670de0b6b3a76400006100f586826101f5565b9190610115565b61010e90670de0b6b3a76400006101f5565b9392505050565b60008380156101b55760018416801561013057859250610134565b8392505b508260011c8460011c94505b84156101af578560801c1561015457600080fd5b8586028181018181101561016757600080fd5b85900496505060018516156101a457858302838782041461018d57861561018d57600080fd5b8181018181101561019d57600080fd5b8590049350505b8460011c9450610140565b506101cb565b8380156101c557600092506101c9565b8392505b505b509392505050565b600080604083850312156101e657600080fd5b50508035926020909101359150565b818103818111156100d657634e487b7160e01b600052601160045260246000fdfea2646970667358221220dc829b5c3d59acc8b3d0490178571e279cbf258631372759d9b0153595e16aaf64736f6c634300081600330000000000000000000000000000000000000000000000000de0b6b3a7640000"
        }
      ],
      "isFixedGasLimit": false
    }
  ],
  "receipts": [
    {
      "transactionHash": "0xb2789c4f584fe2b3e3eb2a77e75b13f4a69732ca3a0a24cf786a950848d64296",
      "transactionIndex": "0x1",
      "blockHash": "0xc555553c23782b5bf8b870923df365a357d030c823a59f11a3a1545f36b8a02f",
      "blockNumber": "0x70d80f0",
      "from": "0x9AF1af61F22b411851C6230860b37d97E7Ffc02B",
      "to": "0x3A95eB89E7b6B86ae2a74480CbA6baa24888c788",
      "cumulativeGasUsed": "0x3a77f",
      "gasUsed": "0x2fc34",
      "contractAddress": null,
      "logs": [
        {
          "address": "0x3A95eB89E7b6B86ae2a74480CbA6baa24888c788",
          "topics": [
            "0xe9c083e46509677006e91e85e2d4f8ca83c1309cb2798019e795f206a0c25a33",
            "0x000000000000000000000000409f6f76998ba5f0b2bc5973e6bed2b74f166555"
          ],
          "data": "0x0000000000000000000000000000000000000000000000000de0b6b3a7640000",
          "blockHash": "0xc555553c23782b5bf8b870923df365a357d030c823a59f11a3a1545f36b8a02f",
          "blockNumber": "0x70d80f0",
          "transactionHash": "0xb2789c4f584fe2b3e3eb2a77e75b13f4a69732ca3a0a24cf786a950848d64296",
          "transactionIndex": "0x1",
          "logIndex": "0x0",
          "removed": false
        }
      ],
      "status": "0x1",
      "logsBloom": "0x00000000000000000000000000000000000000000000000000000000000000000000000000000000000000000000000000000000000000000000000000000000000000000000000001000000000000000000000000000000080000000000000000000000000000000000400000000000000000000000000000000000000000000000000000000010000000020000000000000000000000000000000000000000000000000080000000000000000000000000000000000000000000000000000000000000000000000000000000000000000000000000040000000000000000000002000000000000100000000000000000000000000000000000000000000000",
      "type": "0x2",
      "effectiveGasPrice": "0xb6579aea"
    }
  ],
  "libraries": [],
  "pending": [],
  "returns": {},
  "timestamp": 1712249758,
  "chain": 10,
  "commit": "a4929bd"
}